:020000040800F2
:1000000038050020AD0200080F2800083726000838
:100010000D28000861090008FB34000800000000FA
:10002000000000000000000000000000F92A0008A5
:10003000630900080000000011280008FB2A0008DE
:10004000C7020008C7020008C7020008C70200086C
:10005000C7020008C7020008C7020008C70200085C
:10006000C7020008C7020008C7020008C70200084C
:10007000C7020008C7020008C7020008C70200083C
:10008000C7020008C7020008C7020008C70200082C
:10009000C7020008C7020008C7020008C70200081C
:1000A000C7020008C7020008C7020008C70200080C
:1000B000C7020008C7020008C7020008C7020008FC
:1000C000C7020008C7020008C7020008C7020008EC
:1000D000C7020008C7020008C7020008C7020008DC
:1000E000C7020008C702000800000000C70200089D
:1000F000C7020008C7020008C7020008C7020008BC
:10010000C7020008C7020008C7020008C7020008AB
:10011000C7020008C7020008C7020008C70200089B
:10012000C7020008C7020008C7020008C70200088B
:10013000C7020008C7020008C7020008C70200087B
:1001400000000000000000000000000000000000AF
:10015000C7020008C7020008C7020008C70200085B
:10016000C7020008C7020008C7020008C70200084B
:10017000C7020008C7020008C7020008000000000C
:10018000C7020008C7020008C7020008C70200082B
:10019000C7020008C7020008C7020008C70200081B
:1001A000C7020008C7020008C7020008C70200080B
:1001B000C7020008C7020008C7020008C7020008FB
:1001C000C7020008C7020008C7020008C7020008EB
:1001D000C7020008C7020008C7020008C7020008DB
:1001E000C7020008C7020008C7020008C7020008CB
:1001F000C7020008C7020008C7020008C7020008BB
:10020000C7020008C7020008C7020008C7020008AA
:10021000C7020008C7020008C7020008C70200089A
:10022000C7020008C7020008C7020008000000005B
:10023000C7020008C702000800000000C70200084B
:10024000C7020008C7020008C7020008C70200086A
:10025000C7020008C7020008C7020008C70200085A
:10026000C7020008C7020008C7020008C70200084A
:10027000C7020008C7020008C7020008000000000B
:10028000C7020008C7020008C702000800000000FB
:1002900000000000C7020008DFF80CD000F048FAA8
:1002A000004800473D3500083805002006488047D3
:1002B00006480047FEE7FEE7FEE7FEE7FEE7FEE74B
:1002C000FEE7FEE7FEE7FEE7C12B00089902000803
:1002D0002DE9F05F0546002092469B46884606467B
:1002E000814640241BE0284641464746224600F00E
:1002F00057F853465A46C01A914110D31146184632
:10030000224600F03EF82D1A67EB01084F462246C0
:100310000120002100F035F817EB00094E41201EA6
:10032000A4F10104DFDC484631462A464346BDE8D5
:10033000F09FD2B201E000F8012B491EFBD27047BA
:100340000022F6E710B513460A4604461946FFF7A1
:10035000F0FF204610BD30B50B460146002020229C
:10036000012409E021FA02F59D4205D303FA02F5C2
:10037000491B04FA02F52844151EA2F10102F1DC22
:1003800030BD202A04DB203A00FA02F10020704739
:100390009140C2F1200320FA03F3194390407047C3
:1003A000202A04DB203A21FA02F00021704721FACA
:1003B00002F3D040C2F12002914008431946704731
:1003C0002DE9FE4F804681EA0300C00F0C460090E5
:1003D00021F0004123F00045B8EB0200A94105D20D
:1003E0004046214690461C460B46024623F00040FC
:1003F000104347D0270DC7F30A00C3F30A510290F8
:10040000401A019040286BDAC3F3130040F4801BBC
:100410000098924620B10023D2EB030A63EB0B0B4A
:1004200001985946C0F140025046FFF7AAFF064620
:100430000D4650465946019A00F08CF910EB080021
:100440006141002487EA115284EAE7731A4340D0DD
:10045000009A62B3019A012A4FEA075215DC001B89
:1004600061EB02014FF0004202EA0752CDE900427F
:10047000001C41F5801132462B4600F08CF903B088
:10048000BDE8F08F40462146F9E7001B61EB020111
:10049000001C41F5801300185B412018A2F50017DD
:1004A00047EB030140EAD570B6196D4111E06D08C4
:1004B0004FEA360645EAC0754FEA0752001B61EB6A
:1004C0000201001C41F5801149084FEA3000001973
:1004D000514132462B4603B0BDE8F04F00F04CB915
:1004E0000098012240000023D0EB020263EBE0738E
:1004F000009821464FEAE074B8EB000061EB04017C
:10050000E9E783F000435BE781F0004158E72DE91C
:10051000FE4F81EA030404F0004421F000410094FE
:100520004FF0000B23F0004350EA01045ED052EA82
:1005300003045BD0C3F30A54C1F30A552C44A4F25C
:10054000F3340194A0FB0254C1F3130141F4801170
:10055000C3F3130343F4801301FB024400FB034E77
:10056000840A970A44EA815447EA8357A4FB076840
:1005700002958D0A05FB07854FEA932C04FB0C546A
:100580002705029D4FEA065847EA1637B5EB0805DE
:100590006EEB070C870E920E47EA811742EA831230
:1005A000A7FB0201B6EB0B0164EB00042B0D43EA41
:1005B0000C335E1844EB1C50DA465146E7FB02014F
:1005C000C5F313044FEA0B3343EA14534FEA0432E2
:1005D000019C43EA0603A4F10C040294009CCDE9BB
:1005E00000B400F0D8F803B0BDE8F08F0020014659
:1005F000F9E72DE9F04D81EA030404F0004B21F006
:10060000004514464FF0000A23F0004150EA05026D
:1006100020D054EA01021DD0C5F30A570246C5F3A3
:100620001303C1F31300C1F30A5640F4801543F4D9
:100630008013A7EB0608101BD64608F2FD3873EBB3
:10064000050002D308F1010801E092185B41B8F1FE
:10065000000F03DA00200146BDE8F08D00204FF4C2
:100660008011064684460EE0171B73EB050705D381
:10067000121B63EB050306434CEA010C49084FEAE1
:10068000300092185B4150EA0107EDD152EA0300B5
:1006900012D082EA040083EA0501084305D0101B4A
:1006A000AB4106D20122002306E000224FF00043B6
:1006B00002E06FF0010253101AEB06004CEB0851F8
:1006C00010EB0A0041EB0B01BDE8F04D00F054B80F
:1006D000C1F30A52C1F3130140F2FF3341F4801118
:1006E0009A4202DA00200146704740F233439A42B0
:1006F000A2F2334202DC5242FFF752BEFFF741BE84
:1007000030B5041E71F1000404DB4FF00044404298
:1007100064EB0101141E73F1000405DB1C464FF06D
:100720000043524263EB0403994208BF904230BD3C
:10073000064C074D06E0E06840F0010394E807002E
:1007400098471034AC42F6D3FFF7AAFDF83E0008F4
:10075000183F0008202A06DBCB17203A41FA02F0A6
:1007600043EAE07306E041FA02F3D040C2F120020E
:10077000914008431946704710B5141E73F10004E8
:1007800008DA401C41F1000192185B411A4301D183
:1007900020F0010010BD2DE9F04D92469B4611B1AD
:1007A000B1FA81F202E0B0FA80F220329046FFF70F
:1007B000E8FD04460F4640EA0A0041EA0B015346B1
:1007C0005A46084313D0114653EA010019D0C8F124
:1007D00040025046FFF7E4FD05460E465046594696
:1007E0004246FFF7CEFD084305D0012004E0204635
:1007F0003946BDE8F08D0020054346EAE0762C43FB
:1008000037430A986305E40AA0EB08000022FD0ABA
:1008100044EA47540A3002D500200146E9E70105C1
:1008200010196941DDE9084500196941BDE8F04D3D
:10083000A2E700002DE9FC41FF203B4C8DF80700AA
:1008400010210022204600F062F92021204600F00D
:1008500059F90028F9D0354F0122354D791C354E14
:100860000A232846B047B91C01220A232846B0476C
:10087000012214490A232846B04701220A232846A8
:100880003946B0470DF1070801220A2328464146A0
:10089000B047074601220A2328464146B0470002D6
:1008A00040EA074701220A2328464146B0473D183F
:1008B00010210122204600F02AF9284602B0BDE8A6
:1008C000F08100BF180000207CB5184A00F00F002E
:1008D0005278154C8DF80710102110438DF8060042
:1008E0000022204600F013F92021204600F00AF9EA
:1008F0000028F9D00E4D0DF1060101220D4E0A23FC
:100900002846B047002101220A232846B0470DF1AE
:10091000070101220A232846B04710210122204660
:1009200000F0F5F87CBD00BF000402580400002070
:100930001C0000208921000810B50020074C06216A
:10094000A04702200021A04703202321A047042024
:1009500000212246BDE81040104700BFC90800082A
:10096000FEE7704770470000B0B5044600F0DAF8C3
:10097000964905460978621C18BF0C4400F0D2F86D
:10098000401BA042FAD3B0BD2DE9FC4F5A4A0A27BA
:100990005A4C02444FEAB223A04208BF09274FF045
:1009A000000A4FF0010B4FF000090024092B38BF5B
:1009B0004FEAB227009795E00BFA04F215EA020C11
:1009C00000F08B80D1F804E04EF01006122E11D109
:1009D0006FF0030303EA5406064409F01C07336A68
:1009E0000F25BD40AB430D6905FA07F73B43336262
:1009F000D1F804E00325036805FA0AF50EF00306B2
:100A0000AB4306FA0AF63343BEF1120F03606FEAF6
:100A1000050815D80BFA0EF313F0061F10D08368E3
:100A2000CD6803EA080305FA0AF52B43836043689F
:100A3000CEF3001523EA020205FA04F31A434260DA
:100A4000C2688B6802EA080203FA0AF31A435FEAF3
:100A5000CE03C26041D5654A1346294D12680F2660
:100A600042F002021A604FF0B04E1A6802F0020221
:100A7000019224F00302019B09F00C0357599E4098
:100A8000B743009E06FA03F33B435351194A1546F8
:100A9000D26F4B6842EA0C07DE0358BF22EA0C070C
:100AA000EF679E03D5F8802042EA0C0758BF22EA80
:100AB0000C07C5F88070DEF80020DE0242EA0C0761
:100AC00058BF22EA0C07CEF800702A689B0242EA5F
:100AD0000C0758BF22EA0C072F60013409F1040902
:100AE0000AF1020A0D6835FA04F27FF465AFBDE839
:100AF000FC8F00BF040000580000FEA7002402582D
:100B0000080400580069084018BF01207047002AF7
:100B100008BF09048161704701480068000C7047F4
:100B20000010005C05480068704700BF2748007847
:100B300002490A6810440860704700BF3001002075
:100B400080B5032000F074F800F074FF5A490A6879
:100B5000C2F30322624B9A5C02F01F02D040574A54
:100B60001060096801F00F01595C01F01F01C840D5
:100B700005490860002000F009F808B1012080BD97
:100B800000F026F8002080BD1400002070B50F4E44
:100B90003178C1B104464FF47A70B0FBF1F04749A7
:100BA0000968B1FBF0F001F0F9FB0F2C4FF00105E3
:100BB0000AD848B94FF0FF3000222146002500F046
:100BC00017F8746000E00125284670BD0800002079
:100BD00081B00648016841F002010160006800F040
:100BE00002000090009801B0704700BFF444025822
:100BF00080B5154B1B68C3F3022C8CF0070EBEF1B9
:100C0000040F28BF4FF0040EBCF103034FF0FF3C6C
:100C100038BF00230CFA0EFE21EA0E0199400CFAAF
:100C200003F39A431143BDE8804002F067BC00BF64
:100C300005490A684FF6FF031A4060F30A22034889
:100C400010430860704700BF0CED00E00000FA059B
:100C5000B0B5104D2968490704D4296801F007018F
:100C6000814215D1296821F0070108432860FFF768
:100C700059FF044655F8080C800407D4FFF752FFCB
:100C8000001BB0F57A7FF5D90320B0BD0020B0BDC0
:100C90000120B0BD0C48025880B500F0CBFE0649DB
:100CA0000F4A0968C1F30321515C01F01F01C840DC
:100CB0000249086080BD00BF18440258100000209F
:100CC00080B500F083FE0549054A0968C1F30211A9
:100CD000515C01F01F01C84080BD00BF2044025894
:100CE000D83E000810B53C4CA36AA26AC2F3053C8A
:100CF000E26AE16B02F01002C1F3CC01BCF1000F1B
:100D000002FB01F100EE101AB8EE400A0AD003F01F
:100D10000303022B0AD063B9216889060CD49FED26
:100D2000311A13E00021C0E9001153E09FED2C1AA5
:100D30000CE09FED2A1A09E021682B4AC1F3C1019A
:100D400022FA01F101EE101AB8EE411A02EE10CAB1
:100D50009FED263AB8EE422AA16B6FF35F2181EE38
:100D6000021A02EE101AB8EE422AA16BC1F3462114
:100D700000EE032AB7EE000A03EE101A32EE002A44
:100D8000B8EE433A21EE021A33EE002A81EE022A2F
:100D9000BCEEC22A80ED002AA16BC1F3064102EE2F
:100DA000101AB8EE422A32EE002A81EE022ABCEE78
:100DB000C22A80ED012AA16BC1F3066102EE101A6E
:100DC000B8EE422A32EE000A81EE000ABCEEC00AFA
:100DD00010EE101A816010BD004402580024744ABD
:100DE0000024F44A0024744C0090D0030000003921
:100DF00010B53C4CA36AA26AC2F3055CE26A616C5E
:100E000002F48072C1F3CC01BCF1000F02FB01F1CE
:100E100000EE101AB8EE400A0AD003F00303022BCA
:100E20000AD063B9216889060CD49FED311A13E00A
:100E30000021C0E9001153E09FED2C1A0CE09FED5A
:100E40002A1A09E021682B4AC1F3C10122FA01F1F3
:100E500001EE101AB8EE411A02EE10CA9FED263AC2
:100E6000B8EE422A216C6FF35F2181EE021A02EE86
:100E7000101AB8EE422A216CC1F3462100EE032A73
:100E8000B7EE000A03EE101A32EE002AB8EE433A2B
:100E900021EE021A33EE002A81EE022ABCEEC22AAB
:100EA00080ED002A216CC1F3064102EE101AB8EE63
:100EB000422A32EE002A81EE022ABCEEC22A80EDDE
:100EC000012A216CC1F3066102EE101AB8EE422A23
:100ED00032EE000A81EE000ABCEEC00A10EE101AD3
:100EE000816010BD004402580024744A0024F44A72
:100EF0000024744C0090D003000000392DE9F04725
:100F00000446C078AC4F000721D5606E4FEA3051DF
:100F1000032908D8DFE801F002090E16F96941F447
:100F20000031F9610EE0012612E0201D022101F0DE
:100F300071FC04E004F12400022101F0EBFC064600
:100F400030B9606E396C21F44011084338640026D2
:100F50006078BA46C00701D1354629E0606D0428A3
:100F60000BD83546DFE800F0030C11171700F869BD
:100F7000354640F40030F8610DE00125012718E006
:100F8000201D002101F046FC04E004F124000021B2
:100F900001F0C0FC0546002D2F460AD1DAF84000CA
:100FA000002520F00700616D08435246CAF8400052
:100FB0003746607880072CD5A06D4FEAB010042822
:100FC0000CD8DFE800F0030E13191900DAF81C0042
:100FD000514640F40030CAF81C000DE001250126FE
:100FE00018E0201D002101F015FC04E004F12400AC
:100FF000002101F08FFC0546002D2E460AD1DAF8BB
:101000004000002520F4E070A16D08435246CAF864
:1010100040003E466078400702D4B04657462BE079
:10102000D4F8A40057464FEA7050042809D8DFE8E6
:1010300000F0030C11171700F86940F40030F86154
:101040000EE001254FF0010816E0201D002101F0FF
:10105000E1FB04E004F12400002101F05BFC054603
:10106000002DA84608D1B86C002520F46000D4F803
:10107000A4100843B046B864607800072BD5D4F8B4
:10108000A8004FEA3060042809D8DFE800F0030B1D
:1010900010161600F86940F40030F8610DE00125E3
:1010A000012719E0201D002101F0B4FB04E004F148
:1010B0002400002101F02EFC0546002D2F460BD107
:1010C000DAF84800002520F0E060D4F8A8100843C2
:1010D0005246CAF848004746E078800725D5A06CFC
:1010E0004FEA301003280BD8DFE800F012020D128F
:1010F000DAF81C00514640F40030CAF81C0007E042
:101100000125012612E0201D022101F083FB054686
:10111000002D2E460AD1DAF83C00002520F03000E0
:10112000A16C08435246CAF83C003E466078C006AF
:101130002CD5E06D4FEA303004280CD8DFE800F001
:10114000030E13191900DAF81C00514640F4003060
:10115000CAF81C000DE00125012718E0201D002120
:1011600001F058FB04E004F12400002101F0D2FB5F
:101170000546002D2F460AD1DAF84000002520F45C
:10118000E040E16D08435246CAF8400037466078B7
:10119000800626D5206E4FEA3040052809D8DFE8C2
:1011A00000F013030D131313201D012101F032FB76
:1011B00009E00125012615E01044025804F124003D
:1011C000012101F0A7FB0546002D2E460AD1DAF8D1
:1011D0004000002520F4E020216E08435246CAF862
:1011E00040003E466078400626D5D4F8AC004FEA71
:1011F0003070052809D8DFE800F011030B11111138
:10120000201D012101F006FB07E00125012714E064
:1012100004F12400012101F07DFB0546002D2F463D
:101220000BD1DAF84800002520F0E040D4F8AC10EB
:1012300008435246CAF8480037466078000621D570
:10124000E06E90B1B0F1005F0AD0B0F1805F2DD1B7
:10125000DAF81C00514640F40030CAF81C0004E0E3
:10126000201D012101F0D6FA0546002D2E460AD197
:10127000DAF84000002520F04050E16E0843524665
:10128000CAF840003E46E078C00702D1B046574653
:1012900023E0606C574603280BD8DFE800F0130208
:1012A0000E13F86940F40030F8610BE001250126C7
:1012B000E9E701254FF001080FE0201D022101F0B0
:1012C000A9FA0546002DA84607D1F86B002520F0A5
:1012D0000300616C0843B046F863A078400601D46F
:1012E000474617E0D7F8F00340F48070C7F8F003E2
:1012F000FFF718FC0646D7F8F003C00507D4FFF740
:1013000011FC801B6428F6D90325032702E0002D79
:101310002F4611D02078C0074FD0A06F4FEAF000C1
:10132000052834D8DFE800F03C03363C3C3C201D67
:10133000012101F06FFA32E0DAF860105346D4F878
:10134000B000414011F4407F0BD0196E1A6E21F4A9
:10135000407142F480321A661A6E22F480321A66A4
:101360001966B0F5807F40F01882FFF7DBFB064678
:1013700041F2883903250327DAF86000800700F17D
:101380000982FFF7CFFB801B4845F5D9C2E701254D
:10139000012613E004F12400012101F0BBFA054607
:1013A000002D2E460AD1DAF84400002520F038003E
:1013B000A16F08435246CAF844003E462078800791
:1013C00022D5606F052809D8DFE800F011030B1162
:1013D0001111201D012101F01DFA07E0012501274F
:1013E00013E004F12400012101F094FA0546002DD8
:1013F0002F460AD1DAF84400002520F00700616F7B
:1014000008435246CAF8440037462078400724D59E
:10141000D4F89000052809D8DFE800F011030B117B
:101420001111201D012101F0F5F907E00125012628
:1014300014E004F12400012101F06CFA0546002DAE
:101440002E460BD1DAF84800002520F00700D4F82A
:10145000901008435246CAF848003E46207880065D
:1014600026D5D4F88C004FEA3070052809D8DFE87B
:1014700000F011030B111111201D002101F0CAF918
:1014800007E00125012714E004F12400022101F006
:1014900041FA0546002D2F460BD1DAF8440000250D
:1014A00020F0E040D4F88C1008435246CAF84400BB
:1014B00037462078400626D5D4F898004FEAB02069
:1014C000052809D8DFE800F011030B111111201DC8
:1014D000002101F09FF907E00125012614E004F145
:1014E0002400022101F016FA0546002D2E460BD1EC
:1014F000DAF84800002520F4E050D4F898100843AA
:101500005246CAF848003E462078000626D5D4F850
:101510009C004FEA7030052809D8DFE800F011037D
:101520000B111111201D002101F074F907E00125B4
:10153000012714E004F12400022101F0EBF9054633
:10154000002D2F460BD1DAF84800002520F460402A
:10155000D4F89C1008435246CAF848003746206821
:10156000010716D5D4F88010B1F5805F09D104F1D8
:101570002400022101F0CEF9002818BF01272068BD
:1015800007E0DAF84420534622F440521143CAF8E7
:101590004410C10616D5D4F89410B1F5807F09D156
:1015A00004F12400022101F0B5F9002818BF012739
:1015B000206807E0DAF84820534622F440721143CD
:1015C000CAF84810000321D5D4F8A000B0F5003FB8
:1015D0000ED0B0F5803F05D080BB201D002101F06A
:1015E00019F904E004F12400022101F093F9054601
:1015F000002D2E460BD1DAF84800002520F44030AB
:10160000D4F8A01008435246CAF848003E46A078D5
:1016100040072AD5D4F88400B0F5401F17D0B0F5A4
:10162000001F0ED0B0F5801F40F0AF80DAF81C002C
:10163000514640F40030CAF81C0008E0012501269C
:10164000E5E704F12400012101F064F90546002DCD
:101650002F460BD1DAF84400002520F44010D4F8CE
:10166000841008435246CAF844003746A078C007A1
:1016700001D13E4621E0E06CB0F5803F08D0D0B902
:10168000DAF81C00514640F40030CAF81C0004E0AF
:10169000201D022101F0BEF80546002D2E460CD17A
:1016A000DAF83C00002520F48030E16C0843524613
:1016B000CAF83C00DDE7012501262068810008D535
:1016C00004F12400022101F025F9002818BF0126A9
:1016D0002068810319D5E16F6FF0010202EB31221E
:1016E000022A0AD34FEA31223AB1012A50D1DAF85C
:1016F0001C2042F40032CAF81C203DB9DAF844201C
:1017000022F440721143CAF844103546C10207D58D
:10171000DAF8401021F00041226F1143CAF840105E
:10172000C10008D5DAF8001021F48041D4F8B420C3
:101730001143CAF80010810207D5DAF8401021F0F1
:101740008071A26E1143CAF8401041000CD5DAF83E
:10175000001021F40041CAF80010D4F8B810DAF8EB
:1017600000201143CAF80010B0F1FF3F07DCDAF89F
:101770003C0020F04050216D0843CAF83C00002D89
:1017800018BF01252846BDE8F087012501276DE730
:101790000125BBE75346D4F8B00000F440711A6845
:1017A000B1F5407F22F47C5103D1064A02EA1012BF
:1017B000114319606FF31F30196E00250843186636
:1017C0008EE500BFCFFFFF002DE9F843002800F0B1
:1017D000F48004467B4D286800F00F00884688425C
:1017E0000BD2286820F00F0040EA08002860286823
:1017F00000F00F00404540F0E0802068C44F4107F2
:101800000AD52169BA6902F07002914204D9BA6915
:1018100022F070021143B96101070AD56169FA69C2
:1018200002F07002914204D9FA6922F07002114369
:10183000F961C1060AD5A169FA6902F4E062914230
:1018400004D9FA6922F4E0621143F96181060AD5EC
:10185000E1693A6A02F07002914204D93A6A22F0D0
:1018600070021143396210F002010AD0E268BB69CC
:1018700003F00F039A4204D9BB6923F00F031A4304
:10188000BA61C20737D0B86920F47061D4E90102A7
:1018900011430328B96105D0022807D139688903AB
:1018A0000CD48AE03968890108D486E001283968B7
:1018B00002D1C90502D480E049077ED53969A9461D
:1018C00021F0070108433861FFF72CF9064641F281
:1018D0008835386900F038006168B0EBC10F06D078
:1018E000FFF720F9801BA842F3D9032066E02068A7
:1018F0004D4600F0020151B1E168BA6902F00F02F1
:10190000914204D2BA6922F00F021143B9612968E9
:1019100001F00F0141450AD9296821F00F0141EA80
:1019200008012960296801F00F01414545D14107AF
:101930000AD52169BA6902F07002914204D2BA69EB
:1019400022F070021143B96101070AD56169FA6991
:1019500002F07002914204D2FA6922F0700211433F
:10196000F961C1060AD5A169FA6902F4E0629142FF
:1019700004D2FA6922F4E0621143F96180060AD5C3
:10198000E069396A01F07001884204D2396A21F0B5
:1019900070010843386200F04DF8B969C1F30321C2
:1019A000234A515C084A01F01F0120FA01F100208E
:1019B0001160BDE8F843FFF7E9B8012001B0BDE8C8
:1019C000F08300BF002000521000002080B5FFF718
:1019D00063F90649164A096801F00F01515C01F0EC
:1019E0001F01C8400249086080BD00BF184402586A
:1019F0001400002080B5FFF7E9FF0C490C4A096884
:101A0000C1F30211515C01F01F01C84080BD00BF4D
:101A100080B5FFF7DBFF0549054A0968C1F30221DC
:101A2000515C01F01F01C84080BD00BF1C4402583A
:101A3000D83E000836490869C0F3C20003280CD01C
:101A4000022828D048BB08688006374858BF70472E
:101A50000968C1F3C101C84070478A6A886AC0F347
:101A6000051CCB6A486B03F00103C0F3CC00BCF14A
:101A7000000F03FB00F000EE100AB8EE400A0ED093
:101A800002F00302022A0CD072B9086880060ED454
:101A90009FED241A15E0204870471E48704700202B
:101AA00070479FED1F1A0CE09FED1C1A09E00868B3
:101AB0001D4AC0F3C10022FA00F001EE100AB8EE90
:101AC000411A02EE10CA9FED193AB8EE422A086B8D
:101AD0006FF35F2081EE021A02EE100AB8EE422A7E
:101AE000086BC0F3462000EE032AB7EE000A01306F
:101AF00032EE000A21EE000A01EE100AB8EE411A99
:101B000080EE010ABCEEC00A10EE100A704700BF5A
:101B10000044025800093D0000127A000024744A73
:101B20000024F44A0024744C0090D00300000039D3
:101B3000F8B5002800F05B8104460078CF4EC0075E
:101B40004AD0306900F03801B06A102905D0182950
:101B500009D100F00300022805D1306880033BD58D
:101B60006068C8BB43E1606868B1B0F5803F06D0EB
:101B7000B0F5A02F30681CD140F480203060306870
:101B800040F480301BE0306820F4803030603068F2
:101B900020F480203060FEF7C5FF054630688003E2
:101BA0001AD5FEF7BFFF401B64284FF00300F5D99C
:101BB00032E120F480303060306820F480203060E2
:101BC000FEF7B0FF05463068800305D4FEF7AAFF94
:101BD000401B6428F7D91EE1207880075BD5306967
:101BE00010F03801B06A18D0182908BF5FEA807079
:101BF00013D0E0680028316836D021F0190108437D
:101C00003060FEF78FFF0546306840071FD4FEF7AF
:101C100089FF401B0228F7D9FDE030684007E068E3
:101C200002D5002800F0E380316821F01901084353
:101C30003060FEF777FF05463068400707D4FEF7AF
:101C400071FF401B02284FF00300F5D9E4E0FEF7D6
:101C500063FF41F203018842706816D820F47C309B
:101C6000216940EA013015E021F001003060FEF703
:101C700059FF0546306840070DD5FEF753FF401B5E
:101C800002284FF00300F5D9C6E020F0FE4021699C
:101C900040EA016070602078C0064ED5306900F0DF
:101CA0003801B06A082905D018290AD100F00300CC
:101CB000012806D13068C00518D5E069802815D004
:101CC00095E0E0690028306826D040F08000306060
:101CD000FEF728FF05463068C00507D4FEF722FF4F
:101CE000401B02284FF00300F5D995E0FEF714FFE2
:101CF00041F20301884207D8706820F0F840216A59
:101D000040EA8160706018E0F06820F07C50216A41
:101D100040EA0160F06010E020F080003060FEF7E3
:101D200001FF05463068C00507D5FEF7FBFE401BE6
:101D300002284FF00300F5D96EE02078000723D584
:101D400060690028706F0ED040F001007067FEF7E8
:101D5000E9FE0546706F800716D4FEF7E3FE401BD0
:101D60000228F7D957E020F001007067FEF7DAFE8D
:101D70000546706F800707D5FEF7D4FE401B02288A
:101D80004FF00300F5D947E02078800623D5A069FD
:101D9000002830680ED040F480503060FEF7C2FE5C
:101DA00005463068800416D4FEF7BCFE401B0228AE
:101DB000F7D930E020F480503060FEF7B3FE0546DE
:101DC0003068800407D5FEF7ADFE401B02284FF0B7
:101DD0000300F5D920E0207840070AD4656A002D79
:101DE00000F0C680306900F03800182825D10120A5
:101DF00012E0D6F8000440F48070C6F80004FEF744
:101E000091FE0546D6F80004C00507D4FEF78AFE09
:101E1000401B6428F6D9032001B0F0BDA06878B358
:101E2000012806D00528306F40F0A48040F004005F
:101E30003067306F40F00100A2E0306820F0807021
:101E40003060FEF76FFE022D05460AD13068800132
:101E50002ED5FEF767FE401B02284FF00300F5D990
:101E6000DAE73068800140F18380FEF75BFE401BBB
:101E700003284FF00300F4D3CEE700BF004402581C
:101E8000306F20F001003067306F20F004003067C1
:101E9000FEF748FE054641F28837306F80079DD532
:101EA000FEF740FE401BB8424FF00300F5D9B3E700
:101EB000B06A40F2F3318843A16A226B0843511E95
:101EC000626B4FF47E4303EB4222E36A6FF35F21C0
:101ED00092B240EA0310B0625018A16B4FF4FE02B8
:101EE00002EB014101F4FE010844E16B4FF0FE42B8
:101EF00002EB016101F0FE41084430634FF6F871D6
:101F0000F06A20F00100F062706B8843A16C40EA37
:101F1000C1007063F06A20F00C00216C0843F0628D
:101F2000F06A20F00200616C0843F062F06A40F44D
:101F30008030F062F06A40F40030F062F06A40F401
:101F40008020F062F06A40F00100F062306840F0FA
:101F500080703060FEF7E6FD04463068800107D4EB
:101F6000FEF7E0FD001B02284FF00300F5D953E710
:101F7000002051E720F001003067306F20F00400AE
:101F80003067FEF7CFFD054641F28837306F800796
:101F90003FF524AFFEF7C6FD401BB8424FF00300EB
:101FA000F4D939E7F8B538B3044600680022734D18
:101FB000A842A26208D04B4A904205D04A4A9042B9
:101FC00002D0E2680F2A17D8E1680123E26B0831DA
:101FD00003EB5212C9084A43A8420BD04249884237
:101FE00008D0404B984218BF082A05D8884218BF2D
:101FF000984203D1102A01D9012071E094F8811090
:1020000031B9002084F88000204600F06FF8206885
:10201000022184F88110016821F001010160D4F8E7
:1020200018C0BCF1806F616808BFB1F5800F07D19F
:10203000A16B19B9016841F4805101604FF480012E
:10204000E3690029A56AE26B43EA0503E56842EA11
:10205000030242EA0502D4F808E0D4E9047682607B
:10206000626B656A42EA0C02A36B42EA050242EA2D
:102070000302236A42EA0702A76D42EA060242EA25
:102080000302E36C42EA010242EA0302A36C42EA61
:102090000E0242EA030242EA0702C2600CD0026D5D
:1020A000490222F00102026514D5C16821F0004105
:1020B000626D1143C1600DE08168012262F3CC21A1
:1020C00002228160816862F34A218160016D21F002
:1020D0000101016500200121C4F8840084F8811009
:1020E00001B0F0BD003C0040003001402DE9F0415E
:1020F00086B0044601A81421FEF722F920681F4982
:10210000884238D11E48816801AD41F480411D4CA0
:1021100081604FF002088168002701F4804100913E
:1021200005260099016841F004010160016801F091
:10213000040100910099016841F002010160294603
:10214000006800F00200009000980620019004F55D
:102150008060CDF80880CDE903770596FEF714FC82
:102160004FF48060CDE9010820462946CDE9037788
:102170000596FEF709FC06B0BDE8F0810038004086
:10218000E0440258000402582DE9F843044690F850
:10219000800001285FD001201D4684F8800017468A
:1021A0000E46FEF7BFFC94F88110012950D1002E95
:1021B00055D0002F53D08046032084F881000020A2
:1021C000C4F88400E665A4F86070A4F862706066E4
:1021D000A4F86800A4F86A002067A1686067B1F5F8
:1021E000C02F206803D1016841F40061016041689B
:1021F0004FF6FF72914339444160016841F001019B
:1022000001606168B1F5800F03D1016841F400718C
:102210000160E068102827D36E1C14E02068416933
:10222000890707D4FEF77EFC6EB1A0EB0800A84238
:1022300009D3A2E0E16D04C90262E165B4F862006D
:102240000138A4F86200B4F862000028E6D179E011
:10225000002084F88000022001B0BDE8F083002057
:1022600084F880000120F7E707282DD94FF6FC708D
:102270006E1C00F10209C71C21E020684169890732
:1022800007D4FEF74FFCD6B1A0EB0800A84216D346
:1022900073E0B4F86210022906D3E16B21B1E16D5D
:1022A00004C90262484604E0E16D31F8022B028461
:1022B0003846E165B4F862100844A4F86200B4F846
:1022C00062000028D9D13DE04FF6FC706E1C00F191
:1022D0000209C71C32E020684169890707D4FEF76C
:1022E00021FC5EB3A0EB0800A84227D345E0B4F878
:1022F0006210042908D3E16B412905D3E16D04C9BB
:1023000002624FF6FC700AE0B4F86210022908D3AA
:10231000E16B31B1E16D31F8022B02844846E16591
:1023200007E0E16D097880F82010E06D0130E0658C
:102330003846B4F862100844A4F86200B4F86200A9
:102340000028C8D1204641462A4600F0C0FB28B1EB
:10235000D4F8840040F02000C4F88400204600F047
:102360005BFB002084F88000012084F88100D4F811
:102370008400002818BF01206EE7204600F04CFBC7
:10238000002084F88000D4F8840040F48070C4F801
:102390008400012084F881005EE70000411E0020D7
:1023A000B0EB116F01D001207047044A5160F02159
:1023B000034B1970072190601160704710E000E036
:1023C00023ED00E090F87C10012901D1022112E0F8
:1023D0002421C0F8801002681368116823F00053AC
:1023E00021F0010111600021416613602022C0F834
:1023F000802080F87C1008467047B0B5044690F8FD
:102400007C00012801D10220B0BD012084F87C00AD
:102410002420C4F8800020680568026822F00102C8
:102420000260826822F0606211438160204600F001
:1024300001FC206805602020C4F88000002084F89A
:102440007C00B0BDB0B5044690F87C00012801D1F5
:102450000220B0BD012084F87C002420C4F8800054
:1024600020680568026822F001020260826822F09A
:10247000604211438160204600F0DCFB206805606B
:102480002020C4F88000002084F87C00B0BD10B586
:10249000B0B10446D0F8800028B9002084F87C0050
:1024A000204600F027F82420C4F880002068016846
:1024B00021F001010160204600F07CFC012801D1DF
:1024C000012010BDA06A10B1204600F0DDFB20689D
:1024D000416821F490414160816821F02A018160C6
:1024E000016841F0010101602046BDE8104000F0A4
:1024F0002EBC0000F0B587B0044602A81421FDF7F9
:102500001FFF2068C04988422ED18848816802ACEC
:1025100041F48021154D816000268168072701F470
:10252000802101910199016841F008010160214673
:10253000006800F00800019001984FF4807002904C
:10254000022003902846CDE904660697FEF71CFAA0
:102550004FF4007002901220CDE903062846214670
:10256000CDE90567FEF710FA07B0F0BD000C025880
:102570002DE9F8430446D0F8800020280AD10E4601
:1025800000294FF0010706D0154622B194F87C00CF
:10259000012804D10227384601B0BDE8F0830120AC
:1025A00084F87C0000272120C4F888709946C4F87C
:1025B0008000FEF7B7FAA4F854508046A4F85650AD
:1025C000A168B1F5805F20D12069002814BF304692
:1025D0003746064619E08021CDF8009000222046BB
:1025E000434600F055FFF0B91EB116F8010B216803
:1025F00005E037F8020B002621686FF35F20886240
:10260000B4F856000138A4F85600B4F85600002873
:10261000E1D14021CDF8009000222046434600271A
:1026200000F036FF08B10327B5E72020C4F880008A
:1026300084F87C70AFE7FEE72DE9F04F87B0002704
:102640003A483B4DCDE905770168002241F004018D
:10265000384E01604FF0040A016801F00401019155
:102660000199016841F080010160016801F0800179
:1026700001910199016841F001010160016801F0D7
:10268000010101910199016841F0020101600168B5
:1026900001F0020101910199016841F00801016016
:1026A0000421006800F00800019001983046A84716
:1026B00006F5806444F2880100222046B04644F2C8
:1026C0008809A8471021012220464FF0010BA84796
:1026D0004FF400500290184802ADCDE9030706F50B
:1026E0000060164E2946B04740462946CDE902AB68
:1026F000CDE90477B04720462946CDE9029BCDE9D4
:102700000477B047102002901120CDE9030720463E
:1027100005972946B0472020CDE9020720460497B7
:102720002946B04707B0BDE8F08F00BFE04402582B
:102730000F0B000800000258000011118909000861
:1027400010B5164C16484FF4800120600020072277
:102750006160C4E902024FF0807220614FF0806333
:1027600062614FF0E042C4E9063240F20712C4E968
:102770000800C4E90A124FF08041C4E90C0104F1D9
:1027800038002421FDF7DCFD2046FFF70BFC18B1D3
:10279000BDE81040FEF7E6B810BD00BF1C000020E9
:1027A0000038004010B5174C17484FF4E131206055
:1027B0000020C4E901100C21E060C4E9040104F127
:1027C00018001421FDF7BCFD2046FFF760FE08B19C
:1027D000FEF7C8F80B480021FFF734FE08B1FEF7FA
:1027E000C1F808480021FFF708FE08B1FEF7BAF863
:1027F0000448FFF7E7FD18B1BDE81040FEF7B2B896
:1028000010BD00BFA400002000480040FEE7704754
:1028100070470000F8B57F4FBA6A02F00302032A3E
:1028200001D1012074E00546386820F080600C4634
:102830003860FEF777F906463868000105D5FEF7DF
:1028400071F9801B0228F7D95FE0B86A4FF47E4324
:10285000696820F47C30AA68013903EB42222B68B6
:102860006FF35F2192B240EA03301144EA684FF4FB
:10287000FE03B86203EB024202F4FE0288182969E3
:102880004FF0FE4202EB016101F0FE410844B863E3
:10289000002CF86A20F0C000696940EA0100F86283
:1028A000F86A20F02000A96940EA0100F8624FF6BA
:1028B000F871F86A20F01000F862F86B20EA010065
:1028C000E96940EAC100F863F86A40F01000F86274
:1028D00005D0012CF86A06D140F4801005E0F86AB2
:1028E00040F4002001E040F40010F862386840F045
:1028F00080603860FEF716F904463868000106D497
:10290000FEF710F9001B0328F7D3032000E0002096
:1029100001B0F0BDF8B5C34FBA6A02F00302032A52
:1029200001D1012074E00546386820F080500C4643
:102930003860FEF7F7F806463868800005D5FEF7E0
:10294000F1F8801B0228F7D95FE0B86A4FF47E43A4
:10295000696820F07C70AA68013903EB42222B6879
:102960006FF35F2192B240EA03501144EA684FF4DA
:10297000FE03B86203EB024202F4FE0288182969E2
:102980004FF0FE4202EB016101F0FE410844386461
:10299000002CF86A20F44060696940EA0100F8629E
:1029A000F86A20F40070A96940EA0100F8624FF665
:1029B000F871F86A20F48070F862786C20EA0100FF
:1029C000E96940EAC1007864F86A40F48070F8620E
:1029D00005D0012CF86A06D140F4000005E0F86A41
:1029E00040F4800001E040F08070F862386840F008
:1029F00080503860FEF796F804463868800006D4A8
:102A0000FEF790F8001B0328F7D3032000E0002016
:102A100001B0F0BD00440258016840F26F32D1F8B5
:102A200014C08B6943F008038B618B6943F010037A
:102A30008B610B6823F001030B600B6923EA020230
:102A40000A618A6822F440428A605FEA8C6290F8E8
:102A500081300BD5042B09D0D0F8842042F08002BD
:102A6000C0F884208A6942F020028A6190F881309F
:102A70005FEA4C620BD5032B09D0D0F8842042F0DA
:102A80000402C0F884208A6942F040028A615FEA49
:102A90008C5209D5D0F8842042F00102C0F884207D
:102AA0008A6942F400728A615FEACC5209D5D0F893
:102AB000842042F00802C0F884208A6942F48072BF
:102AC0008A610021A0F86210A0F86A107047F8B57A
:102AD00014460D460646571C30684069000708D466
:102AE000FEF720F8002FF7D0401BA042F4D30320BC
:102AF00000E0002001B0F0BD7047FEF717B80000FD
:102B000010B5CCB039A82C4C4C21FDF719FC31A8DC
:102B10002021FDF715FC02A8BC21FDF711FC0220C5
:102B2000FEF796F800200190206840F440402060B5
:102B3000206800F4404001902048016841F0010104
:102B40000160006800F00100019001982068800495
:102B5000FCD501204FF4A02139903A910221CDE912
:102B6000421144907820CDE945011420CDE9470178
:102B70000C204990002439A8CDE94A44FEF7D8FF3B
:102B80003F2031900320CDE93204082034904020CA
:102B90004FF48061CDE93500CDE9371031A804212B
:102BA000FEF712FE41F20200029002A819941F944F
:102BB000FEF7A4F94CB010BD184802582C04005878
:102BC00010B51748D0F88010174C41F47001C0F8C8
:102BD000801014490A6842F001020A6000220A616A
:102BE0000B6823400B608A61CA610A628A62CA620A
:102BF0000A634A638A63CA630A644A640B6823F4FB
:102C000080230B600A6609490968B2EB517F02D143
:102C10000121074A11604FF00061016010BD00BF43
:102C200008ED00E0004402587FEDF6EA0010005C79
:102C300008810051416ED9B180B501688A68C2F33C
:102C400042628968490FDFF838C01CF80130DFF8AC
:102C500034E01EF80110DB00B3FBF1F11CF8023088
:102C60001EF80220DB00B3FBF2F2BDE8804001E079
:102C700001210122A0F86A10A0F86820704700BF67
:102C8000E83E0008F03E0008816ACA0708D00268E2
:102C9000D0F82CC0536823F4003343EA0C0353608C
:102CA0008A0708D50268D0F830C0536823F480330F
:102CB00043EA0C0353604A0708D50268D0F834C0D1
:102CC000536823F4802343EA0C0353600A0708D5B2
:102CD0000268D0F838C0536823F4004343EA0C0379
:102CE0005360CA0608D50268D0F83CC0936823F444
:102CF000805343EA0C0393608A0608D50268D0F833
:102D000040C0936823F4005343EA0C0393604A06DF
:102D100012D50268D0F844C05368BCF5801F23F474
:102D2000801343EA0C03536006D1536823F4C00CAC
:102D3000836C43EA0C035360090658BF704701686F
:102D4000C06C4A6822F40022104348607047BCB54A
:102D500000210446C0F88810FDF7E4FE216805460E
:102D60000A6812070BD56FF07E404FF400110090F7
:102D7000002220462B4600F08BFB70B921680868C2
:102D800040070CD56FF07E404FF480010090002288
:102D900020462B4600F07CFB08B1032007E02020F2
:102DA000C4F88000C4F88400002084F87C0002B0DD
:102DB000B0BD00002DE9F04186B004460068D4E9BA
:102DC000021322699A4D114362691143E26911436A
:102DD000676E394307682F40964D3943016041685B
:102DE00021F440511943944B41609842A1691CBFA2
:102DF000276A394387682F40904D39438160A84244
:102E0000C16A21F00F07616A47EA01068C4FB84694
:102E1000C66227D08B4DA84230D08B4DA84239D006
:102E20008A4DA84242D08A4DA84200F04A80894D7E
:102E3000A84200F05180984200F05980864DA84287
:102E400000F06080854DA84240F069807E6DC6F339
:102E5000C205052D00F263800126DFE805F0695EFA
:102E6000626466687F6D07F00705052D00F25780E4
:102E70000026DFE805F05D5256585A5C7F6D07F07A
:102E80000705052D00F24B800026DFE805F05146CE
:102E90004A4C4E507F6D07F00705052D00F23F802C
:102EA0000026DFE805F0453A3E4042447F6D07F0DA
:102EB0000705052D33D80026DFE805F03A2F333516
:102EC00037397F6D07F00705052D28D80026DFE884
:102ED00005F02F24282A2C2E7F6D07F00705052DDD
:102EE0001DD80026DFE805F024191D1F2123BF6D22
:102EF00007F00705052D12D80226DFE805F0190EA8
:102F0000121416187F6DC7F3C205052D07D80126C8
:102F1000DFE805F00E0307090B0D042608E0802604
:102F200006E0082604E0102602E0202600E0402605
:102F3000984214D0B2F5004F2ED1082E4FF0010068
:102F40003CD8DFE816F00900D10093029302DB00C1
:102F5000930293029302EA00FEF74CFDC6E0402E76
:102F600000F07E80042E00F08F80082E00F09F80FD
:102F7000102E00F0A580202E00F0AF80022E40F031
:102F80007482FDF79DFE616A0B2980F08580DFF871
:102F9000F02452F8212084E0082E4FF001002AD8B6
:102FA000DFE816F00900C30064026402CD00640289
:102FB00064026402DC00FEF71DFDB8E0102E00F094
:102FC000D580202E00F0DC80402E40F04F820A2970
:102FD0004FF0010000F2E181DFE811F0F5010B0094
:102FE000E401E601E801EA01EC01EE01F001F20181
:102FF000F4010220E7E1102E00F0C880202E00F03E
:10300000CF80402E40F032820A294FF0010000F2BA
:10301000E281DFE811F0F6010B00E501E701E901CB
:10302000EB01ED01EF01F101F301F5010220E8E10F
:10303000F369FFCFFFF4FF11000C0058004400407B
:103040000044025800480040004C0040005000403E
:1030500000780040007C0040001401400010014056
:103060000A294FF0010000F20481DFE811F0180195
:103070000B00070109010B010D010F0111011301E3
:103080001501170102200AE103A8FDF72BFE616A72
:103090000B290498FFF47BAF4FF0010208BF4FF4F7
:1030A0008072B0FBF2F3002B40F0FD80B7E1684680
:1030B000FDF79EFE616A0B290198FFF468AFEBE70C
:1030C000D8F800004246800670D40B2980F0A48016
:1030D000DFF8AC0350F82100A3E00B2972D2DFF82F
:1030E000A00350F8210072E0FEF792FC616A0B2900
:1030F0000BD2DFF88C2352F821100BE003A8FDF768
:10310000F1FD616A0B290498F3D34FF0010108BF68
:103110004FF48071B0FBF1F095E06846FDF768FE72
:10312000616A0B290198E4D3EFE7FEF771FC616A4D
:103130000B290BD2DFF8482352F821100BE003A82B
:10314000FDF7D0FD616A0B290498F3D34FF001011C
:1031500008BF4FF48071B0FBF1F056E16846FDF70F
:1031600047FE616A0B290198E4D3EFE7D8F8000025
:1031700080062ED40B295ED2C14850F821005FE0B2
:103180000B2931D2BE4850F8210032E0D8F80000B7
:10319000800630D40B2965D2B94850F8210066E08A
:1031A0000B2932D2B64850F8210033E010680B29C1
:1031B000C0F3C100B44A22FA00F034D2B04A52F847
:1031C000212035E04FF0010008BF4FF48070AD4A78
:1031D00067E0D8F800000B29C0F3C100AA4A22FA20
:1031E00000F0FFF486AF90E74FF0010008BF4FF406
:1031F0008070A44925E0D8F800000B29C0F3C10075
:10320000A14A22FA00F095D3A0E74FF0010008BFD1
:103210004FF480709B49F6E04FF0010008BF4FF477
:103220008070994A3DE04FF0010208BF4FF4807270
:10323000B0FBF2F337E04FF0010008BF4FF48070AD
:103240009149B1FBF0F0616840004A081044B0FBBE
:10325000F1F04FF6F071014000F00781C0F3420039
:103260000843DAE04FF0010008BF4FF48070864950
:10327000C9E00B2908BF4FF4807010E004200EE075
:1032800006200CE008200AE00A2008E00C2006E0F6
:10329000102004E0202002E0402000E080204FF4D5
:1032A0000042B2FBF0F3626802EB420083424FF04F
:1032B0000100C0F0DB801703BB4200F2D780402E34
:1032C00013D0042E20D0082E2ED0102E34D0202E35
:1032D0003FD0022E40F0C980FDF7F2FC616A0B2955
:1032E00019D2674A52F821101AE00A294FF001005A
:1032F00000F29780DFE801F0AB069A9C9EA0A2A4A2
:10330000A6A8AA000220A2E003A8FDF7EBFC616AD0
:103310000B290498E5D34FF0010108BF4FF48071E9
:10332000B0FBF1F0626827E06846FDF761FD616A75
:103330000B290198D5D3EEE7D8F800008006524853
:103340000DD40B2913D34FF0010108BF4FF4807146
:1033500010E00B291AD24A4850F821001BE0D8F897
:1033600000300B29C3F3C10320FA03F0EBD2444B26
:1033700053F82110B0FBF1F0010E000210EB5200E7
:1033800041F100010023FCF7A3FF69E04FF00100C9
:1033900008BF4FF480703B495BE00B2908BF4FF436
:1033A000807010E004200EE006200CE008200AE007
:1033B0000A2008E00C2006E0102004E0202002E0B3
:1033C000402000E080204FF40041B1FBF0F0616844
:1033D000420048083AE70B2908BF4FF4807010E01C
:1033E00004200EE006200CE008200AE00A2008E095
:1033F0000C2006E0102004E0202002E0402000E045
:1034000080204FF40041B1FBF0F0616800EB510007
:10341000B0FBF1F080B2102827D32168C8600020EB
:1034200024E00B2908BF4FF4807010E004200EE068
:1034300006200CE008200AE00A2008E00C2006E044
:10344000102004E0202002E0402000E080204FF423
:103450000041B1FBF0F0000200EB5200B0FBF2F0D3
:10346000A0F54071094A9142D7D901204FF00111CE
:103470000022C4E91A12226706B0BDE8F08100BF3D
:10348000AC3E000800093D000090D003FFFC0F0097
:103490002DE9F843DDF82080994616460F4604468C
:1034A00008F101052068C0693840C01BB0FA80F0FF
:1034B0004009B0421DD1002DF4D0FDF733FBB8F127
:1034C000000F03D0A0EB09004045EBD9206801684C
:1034D00021F4D0710160816821F001018160202018
:1034E000C4F88000C4F88400002084F87C00032025
:1034F00000E0002001B0BDE8F083FEE700F00F021D
:10350000044B09011A44044BB0F1FF3FC8BFC21875
:103510001170704714ED00E000E400E01CB50446B3
:103520008DF807000DF10701034801220A23FFF778
:103530001FF8204602B010BDA4000020FDF700FBDC
:10354000FFF7DEFAFFF778F8FFF7FAF8FFF72AF946
:1035500008210D480122FDF7DAFAFDF7EDF90BA479
:103560000BA5FDF767F900EE100A2046B8EE400BF8
:1035700053EC102B00F00EF8284600F085FC642078
:10358000FDF7F2F9EDE700BF00040258256C660074
:1035900075560D000FB4054B10B503A9044A0298E7
:1035A00000F0DAF810BC5DF814FB00001D350008CF
:1035B0000000002002E008C8121F08C1002AFAD14A
:1035C00070477047002001E001C1121F002AFBD1A3
:1035D000704700002DE9FF5F82B00021DDE9043073
:1035E000020DDDF840B0034318D044F61050A2F2AB
:1035F000FF3242431514119801281FD0A5EB0B0090
:10360000401C5FEA000A4FF000064E4FDFF8389189
:10361000B046504615D5CAF1000413E011980124B4
:103620004AA3012801D16FEA0B010298119AC0E95F
:103630000031C0E9024206B0BDE8F09FCBF10000C6
:10364000DFE704460021404A491842EB0450CDE927
:10365000001012E0E00707D032463B46404649469C
:10366000FCF755FF8046894632463B4610461946D0
:10367000FCF74DFF06460F466410002CEAD1DDE949
:103680000401DDE90023BAF1000F06DAFCF73FFF81
:1036900042464B46FCF73BFF05E0FCF7AAFF4246DB
:1036A0004B46FCF7A6FF04460E460022284BFDF7CA
:1036B00027F803D84FF0FF30014607E00022254BE2
:1036C00020463146FCF77CFEFDF702F8102409E0A5
:1036D000002C0ADB0A220023FCF7FAFD039B3032A0
:1036E0001A55641E50EA0102F2D1641C039AC4F117
:1036F00011031444119A012A03D0012208430DD169
:103700000AE0084304D000204FF0110B119072E73B
:10371000A3EB0B056D1E0DE05B4504DD4FF00002D1
:1037200005F1010504E003DA4FF00002A5F10105FF
:10373000002AECD002981199C0E90231C0E9004595
:1037400079E70000000014400000F03F3000000066
:103750000000F0430000E03F2DE9FF4F95B09B468D
:103760008946064600250FE2252877D10024274602
:10377000F84A0121059400E0044316F8013F203B7C
:1037800001FA03F01042F7D130782A2811D06FF0F7
:103790002F033078A0F13002092A16D8059A44F098
:1037A000020402EB820203EB42021044761C0590F5
:1037B000EFE759F8042B0592002A03DA504244F44B
:1037C0000054059044F00204761C30782E2816D15F
:1037D00016F8010F44F004042A280DD06FF02F02D0
:1037E0003078A0F13003092B09D807EB870302EBEF
:1037F0004303C718761CF3E759F8047B761C30782E
:103800006C280FD006DC4C2817D068280DD06A2809
:1038100014D104E0742810D07A280FD10DE044F4BC
:1038200000140AE044F4801401E044F44014727877
:10383000824202D104F58014761C761C307866280A
:103840000BD013DC582877D009DC002875D0452828
:10385000F6D04628F4D047281AD19DE118E0632815
:1038600035D0642879D0652812D195E1702873D0BD
:1038700008DC6728F1D069286FD06E280DD06F283A
:1038800006D1B5E073282CD0752875D0782874D06F
:103890005A46179990476D1C75E1C4F302500228EF
:1038A00009D003280DD0D9F8001004280DD00D60E0
:1038B00009F1040967E1D9F80010EA17C1E90052DB
:1038C000F6E7D9F800100D80F2E70D70F0E719F86F
:1038D000041B8DF8001000208DF80100EA4601203D
:1038E00003E059F804AB4FF0FF3061074FF00001DF
:1038F00002D40DE008F101018846B9420FDA804593
:10390000F8DB1AF808100029F4D108E008F10101E9
:1039100088468142FADB1AF808100029F6D105988A
:103920005B46A0EB080721463846179A00F094FA48
:10393000284400EB080507E04DE029E10DE01AF806
:10394000010B5A4617999047B8F10108F7D25B4628
:1039500021463846179A13E142E00A220092C4F346
:1039600002524FF0000A022A08D059F804CB032A69
:103970004FEAEC710AD00DE029E02AE009F10701D5
:1039800021F00702F2E802C1914609E00FFA8CFC2F
:103990004FEAEC71042A03D14FFA8CFC4FEAEC7128
:1039A000002907DA0A460021DCF1000C61EB020174
:1039B0002D2202E0220504D52B228DF804200122BD
:1039C00003E0E20701D02022F7E7904659E00A2100
:1039D00002E010220DE010214FF0000A00910BE0F0
:1039E00010224FF0000A44F004040827009203E07C
:1039F00008224FF0000A0092C4F30252022A05D0B6
:103A000059F804CB0021032A08D009E009F1070185
:103A100021F00702F2E802C1914605E01FFA8CFC92
:103A2000042A01D10CF0FF0C4FF00008220728D522
:103A3000702806D0009B83F0100353EA0A0305D0D8
:103A40000EE040228DF80420012208E05CEA010229
:103A500006D030228DF804208DF805000222904611
:103A6000009B83F0080353EA0A030AD15CEA0102CF
:103A700001D1620705D530228DF804204FF00108EE
:103A80007F1E582804D034A003900EA802900DE0A9
:103A900036A0F9E753466046009AFCF719FC8446C5
:103AA0000398825C0298401E029002705CEA01005A
:103AB000F0D1029806A9081A00F1200A600702D581
:103AC00024F4803400E00127574502DDA7EB0A000B
:103AD00000E0002000EB0A01009005984144401AE4
:103AE0000590E00306D45B462146179A059800F03E
:103AF000B3F90544002706E001A85A46C05D1799AE
:103B000090476D1C7F1C4745F6DBE0030CD55B46F8
:103B10002146179A059800F09FF9054404E03020EB
:103B20005A46179990476D1C0099481E009000292D
:103B3000F5DC08E0029802995A460078491C029187
:103B4000179990476D1CBAF10001AAF1010AF1DC46
:103B500065E1000009280100303132333435363751
:103B600038396162636465660000000030313233C9
:103B70003435363738394142434445460000000069
:103B800000F058F90544761C307800287FF4ECAD3D
:103B900019B02846BDE8F08F620700D4062709F166
:103BA000070222F0070CFCE80223E14603F000487C
:103BB0005FEA080C02D00FF2702C0DE05FEA045CA3
:103BC00002D50FF2682C07E05FEAC47C02D00FF246
:103BD000602C01E0AFF2700C4FF0FF3823F000438F
:103BE000CDF850C065280CD006DC452809D0462801
:103BF0001DD047283DD13DE0662818D067287ED1EA
:103C000038E00021112F01DB112000E0781CCDE904
:103C1000000106A90EA8FFF7DDFCDDE90F010E9AF1
:103C200003910021009207F1010A04914DE04FF049
:103C300000400097CDE9011006A90EA8FFF7CAFCC5
:103C4000DDE90F0203920E9B11990022DDF80CA012
:103C50000093049211B9791C00EB010AB7EB0A003A
:103C600004D4C0F1FF3007F1010A0490AAEB070069
:103C7000019044E0012F00DA01270021112F01DD1E
:103C8000112000E03846CDE9000106A90EA8FFF793
:103C9000A1FCDDE90F010E9A03910021049100922D
:103CA000BA4621070CD40399514500DA8A46BAF185
:103CB000010F05DD009AAAF10101515C302908D0FD
:103CC000B84202DA10F1040F06DA0121CDE9011041
:103CD00015E0AAF10101E9E7002805DC0499014497
:103CE0000491AAEB000102E0411C514500DD8A4627
:103CF0000499401A401C01904FF0004002902007A8
:103D000004D40198504501DBCDF8048000208DF8E3
:103D10004F0002980DF14F07B0F1004F25D02B2036
:103D20000E9002984FF0020800280CDA40420290F0
:103D30002D200E9007E00A210298FCF70CFB303191
:103D4000029007F8011DB8F10001A8F10108F2DCAA
:103D500002980028EFD1791E0E980870307800F094
:103D6000200040F0450007F8020D12A8C01B00F12A
:103D700007081498007800B1012000EB0A010198AF
:103D800001EBE07105984144401A401E0590E003A4
:103D900006D45B462146179A059800F05DF8054465
:103DA0001498007818B15A46179990476D1CE00393
:103DB00024D55B462146179A059800F04DF8054436
:103DC0001CE00498002807DBDDE90301884203DDDD
:103DD0000098405C179901E0179930205A469047A7
:103DE000049805F10105401C04900198401E0190C3
:103DF00004D12E205A46179990476D1CBAF1000144
:103E0000AAF1010ADDDC05E017F8010B5A46179903
:103E100090476D1CB8F10001A8F10108F4DC5B4685
:103E20002146179A0598ABE62D0000002B000000F4
:103E3000200000002DE9F041044600251E461746EB
:103E4000880404D405E039462020B0476D1C641E68
:103E5000F9D52846BDE8F0812DE9F041044600255A
:103E60001E469046C80301D5302700E0202788046D
:103E700004D505E041463846B0476D1C641EF9D5AF
:103E80002846BDE8F081000010B5044601E0FFF7C8
:103E900045FB14F8010B04490028F8D1BDE8104097
:103EA0000A20FFF73BBB00000000002001000000DB
:103EB00002000000040000000600000008000000EE
:103EC0000A0000000C0000001000000020000000AC
:103ED0004000000080000000000000000102030418
:103EE000010203040607080901010103070100009C
:103EF0000804020408010101183F00080000002026
:103F000018000000B4350008303F000818000020F9
:103F100020050000C4350008000000000150FC002E
:103F200001000000100000000090D0030090D003BA
:040000050800029954
:00000001FF
